{
  "_format": "hh-sol-artifact-1",
  "contractName": "RetirementHelper",
  "sourceName": "contracts/RetirementHelper.sol",
  "abi": [
    {
      "inputs": [],
      "stateMutability": "nonpayable",
      "type": "constructor"
    },
    {
      "inputs": [
        {
          "internalType": "address",
          "name": "_poolToken",
          "type": "address"
        },
        {
          "internalType": "address[]",
          "name": "_tco2s",
          "type": "address[]"
        },
        {
          "internalType": "uint256[]",
          "name": "_amounts",
          "type": "uint256[]"
        }
      ],
      "name": "retireSpecificProject",
      "outputs": [
        {
          "internalType": "address[]",
          "name": "tco2s",
          "type": "address[]"
        },
        {
          "internalType": "uint256[]",
          "name": "amounts",
          "type": "uint256[]"
        }
      ],
      "stateMutability": "nonpayable",
      "type": "function"
    }
  ],
  "bytecode": "0x608060405234801561001057600080fd5b50610ca7806100206000396000f3fe608060405234801561001057600080fd5b506004361061002b5760003560e01c80635fbf95aa14610030575b600080fd5b61004361003e3660046109bb565b61005a565b604051610051929190610ae9565b60405180910390f35b606080846001600160a01b031663095ea7b3308560008151811061008e57634e487b7160e01b600052603260045260246000fd5b60200260200101516040518363ffffffff1660e01b81526004016100c79291906001600160a01b03929092168252602082015260400190565b602060405180830381600087803b1580156100e157600080fd5b505af11580156100f5573d6000803e3d6000fd5b505050506040513d601f19601f820116820180604052508101906101199190610a8e565b5061016233308560008151811061014057634e487b7160e01b600052603260045260246000fd5b6020026020010151886001600160a01b0316610189909392919063ffffffff16565b50829050816101728583836101e9565b90925090506101818282610431565b935093915050565b604080516001600160a01b0385811660248301528416604482015260648082018490528251808303909101815260849091019091526020810180516001600160e01b03166323b872dd60e01b1790526101e39085906106c9565b50505050565b6060808260008151811061020d57634e487b7160e01b600052603260045260246000fd5b60209081029190910101516040516370a0823160e01b81523060048201526001600160a01b038716906370a082319060240160206040518083038186803b15801561025757600080fd5b505afa15801561026b573d6000803e3d6000fd5b505050506040513d601f19601f8201168201806040525081019061028f9190610ab5565b10156102e25760405162461bcd60e51b815260206004820152601c60248201527f496e73756666696369656e74204e43542f4243542062616c616e63650000000060448201526064015b60405180910390fd5b50506040516315aaa0a160e11b81528290829085906001600160a01b03821690632b554142906103189086908690600401610ae9565b600060405180830381600087803b15801561033257600080fd5b505af1158015610346573d6000803e3d6000fd5b50506040516320eddd9560e11b81526001600160a01b03841692506341dbbb2a91506103789086908690600401610ae9565b60206040518083038186803b15801561039057600080fd5b505afa1580156103a4573d6000803e3d6000fd5b505050506040513d601f19601f820116820180604052508101906103c89190610ab5565b826000815181106103e957634e487b7160e01b600052603260045260246000fd5b60200260200101516103fb9190610be7565b8260008151811061041c57634e487b7160e01b600052603260045260246000fd5b60200260200101818152505050935093915050565b81518061046e5760405162461bcd60e51b815260206004820152600b60248201526a417272617920656d70747960a81b60448201526064016102d9565b815181146104af5760405162461bcd60e51b815260206004820152600e60248201526d105c9c985e5cc81d5b995c5d585b60921b60448201526064016102d9565b60005b818110156101e3578281815181106104da57634e487b7160e01b600052603260045260246000fd5b6020026020010151600014156104ef576106b7565b82818151811061050f57634e487b7160e01b600052603260045260246000fd5b602002602001015184828151811061053757634e487b7160e01b600052603260045260246000fd5b60209081029190910101516040516370a0823160e01b81523060048201526001600160a01b03909116906370a082319060240160206040518083038186803b15801561058257600080fd5b505afa158015610596573d6000803e3d6000fd5b505050506040513d601f19601f820116820180604052508101906105ba9190610ab5565b10156106085760405162461bcd60e51b815260206004820152601960248201527f496e73756666696369656e742054434f322062616c616e63650000000000000060448201526064016102d9565b83818151811061062857634e487b7160e01b600052603260045260246000fd5b60200260200101516001600160a01b0316633790cf5784838151811061065e57634e487b7160e01b600052603260045260246000fd5b60200260200101516040518263ffffffff1660e01b815260040161068491815260200190565b600060405180830381600087803b15801561069e57600080fd5b505af11580156106b2573d6000803e3d6000fd5b505050505b806106c181610c2a565b9150506104b2565b600061071e826040518060400160405280602081526020017f5361666545524332303a206c6f772d6c6576656c2063616c6c206661696c6564815250856001600160a01b03166107a39092919063ffffffff16565b905080516000148061073f57508080602001905181019061073f9190610a8e565b61079e5760405162461bcd60e51b815260206004820152602a60248201527f5361666545524332303a204552433230206f7065726174696f6e20646964206e6044820152691bdd081cdd58d8d9595960b21b60648201526084016102d9565b505050565b60606107b284846000856107ba565b949350505050565b60608247101561081b5760405162461bcd60e51b815260206004820152602660248201527f416464726573733a20696e73756666696369656e742062616c616e636520666f6044820152651c8818d85b1b60d21b60648201526084016102d9565b600080866001600160a01b031685876040516108379190610acd565b60006040518083038185875af1925050503d8060008114610874576040519150601f19603f3d011682016040523d82523d6000602084013e610879565b606091505b509150915061088a87838387610895565b979650505050505050565b606083156109015782516108fa576001600160a01b0385163b6108fa5760405162461bcd60e51b815260206004820152601d60248201527f416464726573733a2063616c6c20746f206e6f6e2d636f6e747261637400000060448201526064016102d9565b50816107b2565b6107b283838151156109165781518083602001fd5b8060405162461bcd60e51b81526004016102d99190610b5f565b80356001600160a01b038116811461094757600080fd5b919050565b600082601f83011261095c578081fd5b8135602061097161096c83610bc3565b610b92565b80838252828201915082860187848660051b8901011115610990578586fd5b855b858110156109ae57813584529284019290840190600101610992565b5090979650505050505050565b6000806000606084860312156109cf578283fd5b6109d884610930565b925060208085013567ffffffffffffffff808211156109f5578485fd5b818701915087601f830112610a08578485fd5b8135610a1661096c82610bc3565b8082825285820191508585018b878560051b8801011115610a35578889fd5b8895505b83861015610a5e57610a4a81610930565b835260019590950194918601918601610a39565b50965050506040870135925080831115610a76578384fd5b5050610a848682870161094c565b9150509250925092565b600060208284031215610a9f578081fd5b81518015158114610aae578182fd5b9392505050565b600060208284031215610ac6578081fd5b5051919050565b60008251610adf818460208701610bfe565b9190910192915050565b604080825283519082018190526000906020906060840190828701845b82811015610b2b5781516001600160a01b031684529284019290840190600101610b06565b50505083810382850152845180825285830191830190845b818110156109ae57835183529284019291840191600101610b43565b6020815260008251806020840152610b7e816040850160208701610bfe565b601f01601f19169190910160400192915050565b604051601f8201601f1916810167ffffffffffffffff81118282101715610bbb57610bbb610c5b565b604052919050565b600067ffffffffffffffff821115610bdd57610bdd610c5b565b5060051b60200190565b600082821015610bf957610bf9610c45565b500390565b60005b83811015610c19578181015183820152602001610c01565b838111156101e35750506000910152565b6000600019821415610c3e57610c3e610c45565b5060010190565b634e487b7160e01b600052601160045260246000fd5b634e487b7160e01b600052604160045260246000fdfea2646970667358221220102302c94cc754641ab801310f03ac3bec662a52cef665b4ff5fa14ec1b5582c64736f6c63430008040033",
  "linkReferences": {},
  "deployedLinkReferences": {}
}