{
  "_format": "hh-sol-artifact-1",
  "contractName": "RetireSpecificProject",
  "sourceName": "contracts/RetireSpecificProject.sol",
  "abi": [
    {
      "inputs": [
        {
          "internalType": "address",
          "name": "_poolToken",
          "type": "address"
        },
        {
          "internalType": "address",
          "name": "_tco2",
          "type": "address"
        },
        {
          "internalType": "uint256",
          "name": "_amount",
          "type": "uint256"
        }
      ],
      "name": "redeemProject",
      "outputs": [
        {
          "internalType": "address[]",
          "name": "tco2s",
          "type": "address[]"
        },
        {
          "internalType": "uint256[]",
          "name": "amounts",
          "type": "uint256[]"
        }
      ],
      "stateMutability": "nonpayable",
      "type": "function"
    },
    {
      "inputs": [
        {
          "internalType": "address[]",
          "name": "_tco2s",
          "type": "address[]"
        },
        {
          "internalType": "uint256[]",
          "name": "_amounts",
          "type": "uint256[]"
        }
      ],
      "name": "retire",
      "outputs": [],
      "stateMutability": "nonpayable",
      "type": "function"
    },
    {
      "inputs": [
        {
          "internalType": "address",
          "name": "_poolToken",
          "type": "address"
        },
        {
          "internalType": "address",
          "name": "_tco2",
          "type": "address"
        },
        {
          "internalType": "uint256",
          "name": "_amount",
          "type": "uint256"
        }
      ],
      "name": "retireSpecificProject",
      "outputs": [
        {
          "internalType": "address[]",
          "name": "tco2s",
          "type": "address[]"
        },
        {
          "internalType": "uint256[]",
          "name": "amounts",
          "type": "uint256[]"
        }
      ],
      "stateMutability": "nonpayable",
      "type": "function"
    },
    {
      "inputs": [
        {
          "internalType": "address",
          "name": "_fromToken",
          "type": "address"
        },
        {
          "internalType": "address",
          "name": "_poolToken",
          "type": "address"
        },
        {
          "internalType": "address",
          "name": "_tco2",
          "type": "address"
        },
        {
          "internalType": "uint256",
          "name": "_amountToSwap",
          "type": "uint256"
        }
      ],
      "name": "retireSpecificProjectInToken",
      "outputs": [
        {
          "internalType": "address[]",
          "name": "tco2s",
          "type": "address[]"
        },
        {
          "internalType": "uint256[]",
          "name": "amounts",
          "type": "uint256[]"
        }
      ],
      "stateMutability": "nonpayable",
      "type": "function"
    }
  ],
  "bytecode": "0x608060405234801561001057600080fd5b50610d40806100206000396000f3fe608060405234801561001057600080fd5b506004361061004c5760003560e01c806319d82d121461005157806392c12e3a1461007b578063b70b48dc1461008e578063da8ec4c8146100a1575b600080fd5b61006461005f3660046109e1565b6100b6565b604051610072929190610b82565b60405180910390f35b610064610089366004610a2b565b610171565b61006461009c366004610a2b565b6101ab565b6100b46100af366004610a66565b61040e565b005b6000805460405163675c900960e11b81526001600160a01b0387811660048301528681166024830152604482018590526060938493909291169063ceb9201290606401602060405180830381600087803b15801561011357600080fd5b505af1158015610127573d6000803e3d6000fd5b505050506040513d601f19601f8201168201806040525081019061014b9190610b4e565b90506101588686836101ab565b9093509150610167838361040e565b5094509492505050565b6060806101896001600160a01b0386163330866106ac565b6101948585856101ab565b90925090506101a3828261040e565b935093915050565b6040516370a0823160e01b8152306004820152606090819083906001600160a01b038716906370a082319060240160206040518083038186803b1580156101f157600080fd5b505afa158015610205573d6000803e3d6000fd5b505050506040513d601f19601f820116820180604052508101906102299190610b4e565b101561027c5760405162461bcd60e51b815260206004820152601c60248201527f496e73756666696369656e74204e43542f4243542062616c616e63650000000060448201526064015b60405180910390fd5b600085905084836000815181106102a357634e487b7160e01b600052603260045260246000fd5b60200260200101906001600160a01b031690816001600160a01b03168152505083826000815181106102e557634e487b7160e01b600052603260045260246000fd5b60209081029190910101526040516315aaa0a160e11b81526001600160a01b03821690632b5541429061031e9086908690600401610b82565b600060405180830381600087803b15801561033857600080fd5b505af115801561034c573d6000803e3d6000fd5b50506040516320eddd9560e11b81526001600160a01b03841692506341dbbb2a915061037e9086908690600401610b82565b60206040518083038186803b15801561039657600080fd5b505afa1580156103aa573d6000803e3d6000fd5b505050506040513d601f19601f820116820180604052508101906103ce9190610b4e565b6103d89085610c80565b826000815181106103f957634e487b7160e01b600052603260045260246000fd5b60200260200101818152505050935093915050565b81518061044b5760405162461bcd60e51b815260206004820152600b60248201526a417272617920656d70747960a81b6044820152606401610273565b8151811461048c5760405162461bcd60e51b815260206004820152600e60248201526d105c9c985e5cc81d5b995c5d585b60921b6044820152606401610273565b60005b818110156106a6578281815181106104b757634e487b7160e01b600052603260045260246000fd5b6020026020010151600014156104cc57610694565b8281815181106104ec57634e487b7160e01b600052603260045260246000fd5b602002602001015184828151811061051457634e487b7160e01b600052603260045260246000fd5b60209081029190910101516040516370a0823160e01b81523060048201526001600160a01b03909116906370a082319060240160206040518083038186803b15801561055f57600080fd5b505afa158015610573573d6000803e3d6000fd5b505050506040513d601f19601f820116820180604052508101906105979190610b4e565b10156105e55760405162461bcd60e51b815260206004820152601960248201527f496e73756666696369656e742054434f322062616c616e6365000000000000006044820152606401610273565b83818151811061060557634e487b7160e01b600052603260045260246000fd5b60200260200101516001600160a01b0316633790cf5784838151811061063b57634e487b7160e01b600052603260045260246000fd5b60200260200101516040518263ffffffff1660e01b815260040161066191815260200190565b600060405180830381600087803b15801561067b57600080fd5b505af115801561068f573d6000803e3d6000fd5b505050505b8061069e81610cc3565b91505061048f565b50505050565b604080516001600160a01b038581166024830152848116604483015260648083018590528351808403909101815260849092018352602080830180516001600160e01b03166323b872dd60e01b17905283518085019094528084527f5361666545524332303a206c6f772d6c6576656c2063616c6c206661696c6564908401526106a6928792916000916107449185169084906107c9565b90508051600014806107655750808060200190518101906107659190610b27565b6107c45760405162461bcd60e51b815260206004820152602a60248201527f5361666545524332303a204552433230206f7065726174696f6e20646964206e6044820152691bdd081cdd58d8d9595960b21b6064820152608401610273565b505050565b60606107d884846000856107e0565b949350505050565b6060824710156108415760405162461bcd60e51b815260206004820152602660248201527f416464726573733a20696e73756666696369656e742062616c616e636520666f6044820152651c8818d85b1b60d21b6064820152608401610273565b600080866001600160a01b0316858760405161085d9190610b66565b60006040518083038185875af1925050503d806000811461089a576040519150601f19603f3d011682016040523d82523d6000602084013e61089f565b606091505b50915091506108b0878383876108bb565b979650505050505050565b60608315610927578251610920576001600160a01b0385163b6109205760405162461bcd60e51b815260206004820152601d60248201527f416464726573733a2063616c6c20746f206e6f6e2d636f6e74726163740000006044820152606401610273565b50816107d8565b6107d8838381511561093c5781518083602001fd5b8060405162461bcd60e51b81526004016102739190610bf8565b80356001600160a01b038116811461096d57600080fd5b919050565b600082601f830112610982578081fd5b8135602061099761099283610c5c565b610c2b565b80838252828201915082860187848660051b89010111156109b6578586fd5b855b858110156109d4578135845292840192908401906001016109b8565b5090979650505050505050565b600080600080608085870312156109f6578384fd5b6109ff85610956565b9350610a0d60208601610956565b9250610a1b60408601610956565b9396929550929360600135925050565b600080600060608486031215610a3f578283fd5b610a4884610956565b9250610a5660208501610956565b9150604084013590509250925092565b60008060408385031215610a78578182fd5b823567ffffffffffffffff80821115610a8f578384fd5b818501915085601f830112610aa2578384fd5b81356020610ab261099283610c5c565b8083825282820191508286018a848660051b8901011115610ad1578889fd5b8896505b84871015610afa57610ae681610956565b835260019690960195918301918301610ad5565b5096505086013592505080821115610b10578283fd5b50610b1d85828601610972565b9150509250929050565b600060208284031215610b38578081fd5b81518015158114610b47578182fd5b9392505050565b600060208284031215610b5f578081fd5b5051919050565b60008251610b78818460208701610c97565b9190910192915050565b604080825283519082018190526000906020906060840190828701845b82811015610bc45781516001600160a01b031684529284019290840190600101610b9f565b50505083810382850152845180825285830191830190845b818110156109d457835183529284019291840191600101610bdc565b6020815260008251806020840152610c17816040850160208701610c97565b601f01601f19169190910160400192915050565b604051601f8201601f1916810167ffffffffffffffff81118282101715610c5457610c54610cf4565b604052919050565b600067ffffffffffffffff821115610c7657610c76610cf4565b5060051b60200190565b600082821015610c9257610c92610cde565b500390565b60005b83811015610cb2578181015183820152602001610c9a565b838111156106a65750506000910152565b6000600019821415610cd757610cd7610cde565b5060010190565b634e487b7160e01b600052601160045260246000fd5b634e487b7160e01b600052604160045260246000fdfea26469706673582212206b88706b74234b86f538744e28a487489a892d5c88678831e92a12043072ebf164736f6c63430008040033",
  "linkReferences": {},
  "deployedLinkReferences": {}
}