{
  "_format": "hh-sol-artifact-1",
  "contractName": "SimpleSwap",
  "sourceName": "contracts/SimpleSwap.sol",
  "abi": [
    {
      "inputs": [],
      "stateMutability": "nonpayable",
      "type": "constructor"
    },
    {
      "inputs": [],
      "name": "fromToken",
      "outputs": [
        {
          "internalType": "address",
          "name": "",
          "type": "address"
        }
      ],
      "stateMutability": "view",
      "type": "function"
    },
    {
      "inputs": [],
      "name": "poolFee",
      "outputs": [
        {
          "internalType": "uint24",
          "name": "",
          "type": "uint24"
        }
      ],
      "stateMutability": "view",
      "type": "function"
    },
    {
      "inputs": [],
      "name": "poolToken",
      "outputs": [
        {
          "internalType": "address",
          "name": "",
          "type": "address"
        }
      ],
      "stateMutability": "view",
      "type": "function"
    },
    {
      "inputs": [
        {
          "internalType": "address",
          "name": "_fromToken",
          "type": "address"
        },
        {
          "internalType": "address",
          "name": "_poolToken",
          "type": "address"
        },
        {
          "internalType": "uint256",
          "name": "amountIn",
          "type": "uint256"
        }
      ],
      "name": "swapExactInputSingle",
      "outputs": [
        {
          "internalType": "uint256",
          "name": "amountOut",
          "type": "uint256"
        }
      ],
      "stateMutability": "nonpayable",
      "type": "function"
    },
    {
      "inputs": [],
      "name": "swapRouter",
      "outputs": [
        {
          "internalType": "contract ISwapRouter",
          "name": "",
          "type": "address"
        }
      ],
      "stateMutability": "view",
      "type": "function"
    }
  ],
  "bytecode": "0x60a0604052600080546001600160a01b031916735dc88340e1c5c6366864ee415d6034cadd1a989717905534801561003657600080fd5b507f5dc88340e1c5c6366864ee415d6034cadd1a9897000000000000000000000000608052735dc88340e1c5c6366864ee415d6034cadd1a989761058b6100956000396000818160b60152818161012801526101ef015261058b6000f3fe608060405234801561001057600080fd5b50600436106100575760003560e01c8063089fe6aa1461005c57806332a468571461007e578063c31c9c07146100b1578063cbdf382c146100d8578063ceb92012146100f3575b600080fd5b610065610bb881565b60405162ffffff90911681526020015b60405180910390f35b61009973765de816845861e75a25fca122bb6898b8b1282a81565b6040516001600160a01b039091168152602001610075565b6100997f000000000000000000000000000000000000000000000000000000000000000081565b6100997302de4766c272abc10bc88c220d214a26960a7e9281565b6101066101013660046104a2565b610114565b604051908152602001610075565b600061012284333085610277565b61014d847f000000000000000000000000000000000000000000000000000000000000000084610386565b60408051610100810182526001600160a01b0386811682528581166020830190815260008385018181523360608601908152426080870190815260a087018a815260c0880185815260e08901958652985163414bf38960e01b8152885188166004820152955187166024870152925162ffffff1660448601529051851660648501525160848401525160a4830152935160c48201529251811660e484015290917f00000000000000000000000000000000000000000000000000000000000000009091169063414bf3899061010401602060405180830381600087803b15801561023657600080fd5b505af115801561024a573d6000803e3d6000fd5b505050506040513d601f19601f8201168201806040525081019061026e9190610504565b95945050505050565b604080516001600160a01b0385811660248301528481166044830152606480830185905283518084039091018152608490920183526020820180516001600160e01b03166323b872dd60e01b17905291516000928392908816916102db919061051c565b6000604051808303816000865af19150503d8060008114610318576040519150601f19603f3d011682016040523d82523d6000602084013e61031d565b606091505b509150915081801561034757508051158061034757508080602001905181019061034791906104dd565b61037e5760405162461bcd60e51b815260206004820152600360248201526229aa2360e91b60448201526064015b60405180910390fd5b505050505050565b604080516001600160a01b038481166024830152604480830185905283518084039091018152606490920183526020820180516001600160e01b031663095ea7b360e01b17905291516000928392908716916103e2919061051c565b6000604051808303816000865af19150503d806000811461041f576040519150601f19603f3d011682016040523d82523d6000602084013e610424565b606091505b509150915081801561044e57508051158061044e57508080602001905181019061044e91906104dd565b61047f5760405162461bcd60e51b8152602060048201526002602482015261534160f01b6044820152606401610375565b5050505050565b80356001600160a01b038116811461049d57600080fd5b919050565b6000806000606084860312156104b6578283fd5b6104bf84610486565b92506104cd60208501610486565b9150604084013590509250925092565b6000602082840312156104ee578081fd5b815180151581146104fd578182fd5b9392505050565b600060208284031215610515578081fd5b5051919050565b60008251815b8181101561053c5760208186018101518583015201610522565b8181111561054a5782828501525b50919091019291505056fea2646970667358221220dc26f07ed59a034e2c6718adb3c93543e63e1adc4ecfbbd01fc734ee087e472d64736f6c63430008040033",
  "linkReferences": {},
  "deployedLinkReferences": {}
}